:08000000803102288731FB2F3B
:1009C600C8308531232584310800C8308531232578
:1009D60084310800F000700823009A009E1CF42C55
:1009E600F52CF12C080022000D168431E824843100
:1009F60022000D128431E82484310800F60022001A
:100A06008D128431E3248531760887317927853143
:100A16000800F60022008D168431E324853176081D
:100A260087317927853108000030FA000030F90057
:100A36000030F800C830F7008531B225853108004E
:100A4600F100F2012B2D00000130F0007008F207D2
:100A560071087202031C302D312D262D0800F50178
:100A6600F6013D2D0F308531232585310130F507FF
:100A76000030F63D74087602031D432D7308750297
:100A8600031C462D472D352D0800552D770884006B
:100A960078088500000885310C2585310130F70777
:100AA6000030F83D77088400780885001200031DA1
:100AB6005D2D5E2D492D08006C2D7108840072088D
:100AC600850000088431ED2485310130F1070030BE
:100AD600F23D71088400720885001200031D742D12
:100AE600752D602D0800F8008A2D7708803E853127
:100AF60001258531922D7708C03E85310125853146
:100B0600922D7708803E853101258531922D780812
:100B1600003A0319782D013A03197E2D842D080019
:100B26000030FA000030F9000030F8006430F700B9
:100B36008531B22585310030FA000030F9000030E9
:100B4600F8008D30F7008531B22585318631C8260B
:100B56008531863112268531AC2D80310228003050
:100B66002000A3000030A2000030A1000030A00049
:100B7600CC2D2930F3000030F40085313225853143
:100B860001302000A0070030A13D0030A23D00301A
:100B9600A33D7A082302031DDA2D79082202031DDC
:100BA600DA2D78082102031DDA2D77082002031CAE
:100BB600DD2DDE2DBC2D08000030FA000030F900D6
:100BC6000030F8001430F7008531B2258531333016
:100BD6008531012585313230853101258531283031
:100BE60085310125853102308531012585310C306D
:100BF60085310125853106308531012585318030E5
:100C06008531012585310130853101258531413018
:100C1600F3000030F40085313225853108002000CC
:100C26008C18162E172E222E4030F1008830F20036
:100C360085315F258631853117258631462E0C197B
:100C4600252E262E2E2E1630F1008830F200853104
:100C56005F2586311E2E8C19312E322E3A2E2B30E0
:100C6600F1008830F20085315F2586311E2E0C1A80
:100C76003D2E3E2E462E0030F1008830F2008531A2
:100C86005F2586311E2E86314A26863108002300CE
:100C96001F1B4E2E4F2E872E2000911E532E542E94
:100CA6004F2E230019082000AE00F70101308531D0
:100CB6007625863120002E0885310C258631313087
:100CC60020002E06031D682E692E6C2E22008D171D
:100CD600872E32302E06031D712E722E752E22009F
:100CE6008D13872E33302E06031D7A2E7B2E7E2EF5
:100CF60022000D17872E34302E06031D832E842ED8
:100D0600872E22000D13872E080023009E131E1324
:100D16009E161E121E119D171D131D169F151F10C0
:100D260020002708F3002608F2002508F100240811
:100D3600F0002308F7002208F6002108F500200835
:100D4600F40087311F27863170082000A80071083B
:100D5600A9007208AA007308AB000430AB36AA0CCF
:100D6600A90CA80C890BB12E2808FF3EAC00FF3059
:100D7600293DAD0023009C0120002C0823009B0088
:100D86001730853123258631080021000D138D1378
:100D960022008D130D1321008D120D128D110D11D0
:100DA6008D108E1223008D120D128D110D118D10C6
:100DB60022008D120D128D110D118D108E12210033
:100DC6008C140C158C150C1623008C100C118C1120
:100DD6000C1221000E1322001D1121008E17220075
:100DE6009D108531DF258631F70100308531762566
:100DF60086316530F7008830F80085314825863120
:100E060001302000A300E830A2004830A1000030E5
:100E1600A0000030A7000130A600C230A5000030B7
:100E2600A4008631882686315330F1008830F200DE
:100E360085315F25863108000030FC000030FB005C
:100E46000030FA000030F90073087204710470046F
:100E560003192E2F2F2F702FFD01FD0A3D2F013074
:100E6600F035F10DF20DF30D890B332F0130F8003B
:100E76007808FD07F31F402F412F322F0130F93537
:100E8600FA0DFB0DFC0D890B422F73087702031D2B
:100E9600562F72087602031D562F71087502031D20
:100EA600562F70087402031C592F5A2F632F70088F
:100EB600F4027108F53B7208F63B7308F73B7914A8
:100EC6000130F336F20CF10CF00C890B642F013073
:100ED600FD02031D6F2F702F412F7C08F3007B0846
:100EE600F2007A08F1007908F0000800F5007508AC
:100EF600F3000730F336890B7D2F73080139F400B0
:100F0600F40EF40D22000E087406DF3974068E0006
:100F16007508F3000630F336890B8E2F73080139F6
:100F2600F400F40D0D087406FD3974068D0075087D
:100F3600F3000530F336890B9D2F73080139F40051
:100F4600F40DF40D0D087406FB3974068D00750852
:100F5600F3000430F336890BAD2F73080139F40022
:100F6600F40DF40DF40D0D087406F73974068D00B2
:100F76008431F62487317508F3000330F336890B84
:100F8600C12F73080139F400F40EF40D22000E0887
:100F96007406DF3974068E007508F3000230F336E6
:100FA600890BD22F73080139F400F40D0D0874066D
:100FB600FD3974068D0075360139F300F30DF30D16
:100FC6000D087306FB3973068D0075080139F300A9
:100FD600F30DF30DF30D0D087306F73973068D0047
:100FE6008431F62487311E30853123258731080068
:100FF6002000AE0120008531932D523469346734C8
:1010060068347434203462347534743474346F3410
:101016006E3420347034723465347334733465340A
:1010260064340A34003444346F3477346E342034F4
:1010360062347534743474346F346E3420347034DE
:101046007234653473347334653464340A3400346A
:101056004C346534663474342034623475347434F4
:1010660074346F346E3420347034723465347334AF
:101076007334653464340A3400345534703420349F
:1010860062347534743474346F346E34203470348E
:101096007234653473347334653464340A3400341A
:1010A6005534413452345434203454347234613417
:1010B6006E3473346334653469347634653472342B
:1010C6000A340034553441345234543420345434C0
:0810D600783452347834003400
:020000040001F9
:04000E00E201FF3FCD
:00000001FF
